{
  "_format": "hh-sol-artifact-1",
  "contractName": "CustomDex",
  "sourceName": "contracts/CustomEx.sol",
  "abi": [
    {
      "inputs": [],
      "stateMutability": "nonpayable",
      "type": "constructor"
    },
    {
      "inputs": [],
      "name": "_historyIndex",
      "outputs": [
        {
          "internalType": "uint256",
          "name": "",
          "type": "uint256"
        }
      ],
      "stateMutability": "view",
      "type": "function"
    },
    {
      "inputs": [],
      "name": "getAllHistory",
      "outputs": [
        {
          "components": [
            {
              "internalType": "uint256",
              "name": "historyId",
              "type": "uint256"
            },
            {
              "internalType": "string",
              "name": "tokenA",
              "type": "string"
            },
            {
              "internalType": "string",
              "name": "tokenB",
              "type": "string"
            },
            {
              "internalType": "uint256",
              "name": "inputValue",
              "type": "uint256"
            },
            {
              "internalType": "uint256",
              "name": "outputValue",
              "type": "uint256"
            },
            {
              "internalType": "address",
              "name": "userAddress",
              "type": "address"
            }
          ],
          "internalType": "struct CustomDex.History[]",
          "name": "",
          "type": "tuple[]"
        }
      ],
      "stateMutability": "view",
      "type": "function"
    },
    {
      "inputs": [
        {
          "internalType": "string",
          "name": "tokenName",
          "type": "string"
        },
        {
          "internalType": "address",
          "name": "_address",
          "type": "address"
        }
      ],
      "name": "getBalance",
      "outputs": [
        {
          "internalType": "uint256",
          "name": "",
          "type": "uint256"
        }
      ],
      "stateMutability": "view",
      "type": "function"
    },
    {
      "inputs": [],
      "name": "getEthBalance",
      "outputs": [
        {
          "internalType": "uint256",
          "name": "",
          "type": "uint256"
        }
      ],
      "stateMutability": "view",
      "type": "function"
    },
    {
      "inputs": [
        {
          "internalType": "string",
          "name": "tokenName",
          "type": "string"
        }
      ],
      "name": "getName",
      "outputs": [
        {
          "internalType": "string",
          "name": "",
          "type": "string"
        }
      ],
      "stateMutability": "view",
      "type": "function"
    },
    {
      "inputs": [
        {
          "internalType": "string",
          "name": "tokenName",
          "type": "string"
        }
      ],
      "name": "getTokenAddress",
      "outputs": [
        {
          "internalType": "address",
          "name": "",
          "type": "address"
        }
      ],
      "stateMutability": "view",
      "type": "function"
    },
    {
      "inputs": [
        {
          "internalType": "string",
          "name": "tokenName",
          "type": "string"
        }
      ],
      "name": "getTotalSupply",
      "outputs": [
        {
          "internalType": "uint256",
          "name": "",
          "type": "uint256"
        }
      ],
      "stateMutability": "view",
      "type": "function"
    },
    {
      "inputs": [
        {
          "internalType": "string",
          "name": "tokenName",
          "type": "string"
        }
      ],
      "name": "swapEthToToken",
      "outputs": [
        {
          "internalType": "uint256",
          "name": "",
          "type": "uint256"
        }
      ],
      "stateMutability": "payable",
      "type": "function"
    },
    {
      "inputs": [
        {
          "internalType": "string",
          "name": "tokenName",
          "type": "string"
        },
        {
          "internalType": "uint256",
          "name": "_amount",
          "type": "uint256"
        }
      ],
      "name": "swapTokenToEth",
      "outputs": [
        {
          "internalType": "uint256",
          "name": "",
          "type": "uint256"
        }
      ],
      "stateMutability": "nonpayable",
      "type": "function"
    },
    {
      "inputs": [
        {
          "internalType": "string",
          "name": "srcTokenName",
          "type": "string"
        },
        {
          "internalType": "string",
          "name": "destTokenName",
          "type": "string"
        },
        {
          "internalType": "uint256",
          "name": "_amount",
          "type": "uint256"
        }
      ],
      "name": "swapTokenToToken",
      "outputs": [],
      "stateMutability": "nonpayable",
      "type": "function"
    },
    {
      "inputs": [
        {
          "internalType": "string",
          "name": "",
          "type": "string"
        }
      ],
      "name": "tokenInstanceMap",
      "outputs": [
        {
          "internalType": "contract ERC20",
          "name": "",
          "type": "address"
        }
      ],
      "stateMutability": "view",
      "type": "function"
    },
    {
      "inputs": [
        {
          "internalType": "uint256",
          "name": "",
          "type": "uint256"
        }
      ],
      "name": "tokens",
      "outputs": [
        {
          "internalType": "string",
          "name": "",
          "type": "string"
        }
      ],
      "stateMutability": "view",
      "type": "function"
    }
  ],
  "bytecode": "0x60806040526040518061010001604052806040518060400160405280600a81526020017f546574686572205553440000000000000000000000000000000000000000000081525081526020016040518060400160405280600381526020017f424e42000000000000000000000000000000000000000000000000000000000081525081526020016040518060400160405280600881526020017f55534420436f696e00000000000000000000000000000000000000000000000081525081526020016040518060400160405280600581526020017f737445544800000000000000000000000000000000000000000000000000000081525081526020016040518060400160405280600481526020017f54524f4e0000000000000000000000000000000000000000000000000000000081525081526020016040518060400160405280600b81526020017f4d6174696320546f6b656e00000000000000000000000000000000000000000081525081526020016040518060400160405280600981526020017f534849424120494e55000000000000000000000000000000000000000000000081525081526020016040518060400160405280600781526020017f556e6973776170000000000000000000000000000000000000000000000000008152508152506000906008620001f8929190620003aa565b5066038d7ea4c680006002553480156200021157600080fd5b5060005b600080549050811015620003a35760008082815481106200025f577f4e487b7100000000000000000000000000000000000000000000000000000000600052603260045260246000fd5b9060005260206000200160008381548110620002a4577f4e487b7100000000000000000000000000000000000000000000000000000000600052603260045260246000fd5b90600052602060002001604051620002bc9062000411565b620002c99291906200066d565b604051809103906000f080158015620002e6573d6000803e3d6000fd5b5090508060016000848154811062000327577f4e487b7100000000000000000000000000000000000000000000000000000000600052603260045260246000fd5b9060005260206000200160405162000340919062000654565b908152602001604051809103902060006101000a81548173ffffffffffffffffffffffffffffffffffffffff021916908373ffffffffffffffffffffffffffffffffffffffff1602179055505080806200039a9062000719565b91505062000215565b50620007c5565b828054828255906000526020600020908101928215620003fe579160200282015b82811115620003fd578251829080519060200190620003ec9291906200041f565b5091602001919060010190620003cb565b5b5090506200040d9190620004b0565b5090565b611823806200230383390190565b8280546200042d90620006e3565b90600052602060002090601f0160209004810192826200045157600085556200049d565b82601f106200046c57805160ff19168380011785556200049d565b828001600101855582156200049d579182015b828111156200049c5782518255916020019190600101906200047f565b5b509050620004ac9190620004d8565b5090565b5b80821115620004d45760008181620004ca9190620004f7565b50600101620004b1565b5090565b5b80821115620004f3576000816000905550600101620004d9565b5090565b5080546200050590620006e3565b6000825580601f106200051957506200053a565b601f016020900490600052602060002090810190620005399190620004d8565b5b50565b600081546200054c81620006e3565b620005588186620006bd565b945060018216600081146200057657600181146200058957620005c0565b60ff1983168652602086019350620005c0565b6200059485620006a8565b60005b83811015620005b85781548189015260018201915060208101905062000597565b808801955050505b50505092915050565b60008154620005d881620006e3565b620005e48186620006ce565b9450600182166000811462000602576001811462000614576200064b565b60ff198316865281860193506200064b565b6200061f85620006a8565b60005b83811015620006435781548189015260018201915060208101905062000622565b838801955050505b50505092915050565b6000620006628284620005c9565b915081905092915050565b600060408201905081810360008301526200068981856200053d565b905081810360208301526200069f81846200053d565b90509392505050565b60008190508160005260206000209050919050565b600082825260208201905092915050565b600081905092915050565b6000819050919050565b60006002820490506001821680620006fc57607f821691505b6020821081141562000713576200071262000796565b5b50919050565b60006200072682620006d9565b91507fffffffffffffffffffffffffffffffffffffffffffffffffffffffffffffffff8214156200075c576200075b62000767565b5b600182019050919050565b7f4e487b7100000000000000000000000000000000000000000000000000000000600052601160045260246000fd5b7f4e487b7100000000000000000000000000000000000000000000000000000000600052602260045260246000fd5b611b2e80620007d56000396000f3fe6080604052600436106100a75760003560e01c806370ed0ada1161006457806370ed0ada146101e957806389f4b31714610214578063a93325ed14610251578063bf015aae1461028e578063c4091236146102b7578063db6f63ee146102f4576100a7565b806319b3c12d146100ac57806339c5891a146100d75780634f64b2be146101025780635463109e1461013f57806363fcf7c51461017c5780636932cf81146101ac575b600080fd5b3480156100b857600080fd5b506100c1610331565b6040516100ce91906116ef565b60405180910390f35b3480156100e357600080fd5b506100ec610337565b6040516100f99190611670565b60405180910390f35b34801561010e57600080fd5b5061012960048036038101906101249190611345565b610608565b60405161013691906116ad565b60405180910390f35b34801561014b57600080fd5b506101666004803603810190610161919061119c565b6106b4565b60405161017391906116ef565b60405180910390f35b6101966004803603810190610191919061119c565b610779565b6040516101a391906116ef565b60405180910390f35b3480156101b857600080fd5b506101d360048036038101906101ce919061119c565b6108c9565b6040516101e091906116ad565b60405180910390f35b3480156101f557600080fd5b506101fe610993565b60405161020b91906116ef565b60405180910390f35b34801561022057600080fd5b5061023b6004803603810190610236919061121e565b61099b565b60405161024891906116ef565b60405180910390f35b34801561025d57600080fd5b506102786004803603810190610273919061119c565b610a6c565b6040516102859190611692565b60405180910390f35b34801561029a57600080fd5b506102b560048036038101906102b09190611272565b610ab5565b005b3480156102c357600080fd5b506102de60048036038101906102d9919061119c565b610c70565b6040516102eb91906115f5565b60405180910390f35b34801561030057600080fd5b5061031b600480360381019061031691906112f1565b610cb8565b60405161032891906116ef565b60405180910390f35b60035481565b6060600060035490506000808267ffffffffffffffff811115610383577f4e487b7100000000000000000000000000000000000000000000000000000000600052604160045260246000fd5b6040519080825280602002602001820160405280156103bc57816020015b6103a9610f60565b8152602001906001900390816103a15790505b50905060005b838110156105fe5760006001826103d991906117dc565b90506000600460008381526020019081526020016000209050806040518060c0016040529081600082015481526020016001820180546104189061196b565b80601f01602080910402602001604051908101604052809291908181526020018280546104449061196b565b80156104915780601f1061046657610100808354040283529160200191610491565b820191906000526020600020905b81548152906001019060200180831161047457829003601f168201915b505050505081526020016002820180546104aa9061196b565b80601f01602080910402602001604051908101604052809291908181526020018280546104d69061196b565b80156105235780601f106104f857610100808354040283529160200191610523565b820191906000526020600020905b81548152906001019060200180831161050657829003601f168201915b5050505050815260200160038201548152602001600482015481526020016005820160009054906101000a900473ffffffffffffffffffffffffffffffffffffffff1673ffffffffffffffffffffffffffffffffffffffff1673ffffffffffffffffffffffffffffffffffffffff16815250508486815181106105cf577f4e487b7100000000000000000000000000000000000000000000000000000000600052603260045260246000fd5b60200260200101819052506001856105e791906117dc565b9450505080806105f69061199d565b9150506103c2565b5080935050505090565b6000818154811061061857600080fd5b9060005260206000200160009150905080546106339061196b565b80601f016020809104026020016040519081016040528092919081815260200182805461065f9061196b565b80156106ac5780601f10610681576101008083540402835291602001916106ac565b820191906000526020600020905b81548152906001019060200180831161068f57829003601f168201915b505050505081565b60006001826040516106c691906115de565b908152602001604051809103902060009054906101000a900473ffffffffffffffffffffffffffffffffffffffff1673ffffffffffffffffffffffffffffffffffffffff166318160ddd6040518163ffffffff1660e01b815260040160206040518083038186803b15801561073a57600080fd5b505afa15801561074e573d6000803e3d6000fd5b505050506040513d601f19601f82011682018060405250810190610772919061136e565b9050919050565b6000803490506000670de0b6b3a7640000600254836107989190611832565b6107a29190611863565b90506001846040516107b491906115de565b908152602001604051809103902060009054906101000a900473ffffffffffffffffffffffffffffffffffffffff1673ffffffffffffffffffffffffffffffffffffffff1663a9059cbb33836040518363ffffffff1660e01b815260040161081d929190611647565b602060405180830381600087803b15801561083757600080fd5b505af115801561084b573d6000803e3d6000fd5b505050506040513d601f19601f8201168201806040525081019061086f9190611173565b61087857600080fd5b60006040518060400160405280600581526020017f457468657200000000000000000000000000000000000000000000000000000081525090506108be85828585610e92565b819350505050919050565b60606001826040516108db91906115de565b908152602001604051809103902060009054906101000a900473ffffffffffffffffffffffffffffffffffffffff1673ffffffffffffffffffffffffffffffffffffffff166306fdde036040518163ffffffff1660e01b815260040160006040518083038186803b15801561094f57600080fd5b505afa158015610963573d6000803e3d6000fd5b505050506040513d6000823e3d601f19601f8201168201806040525081019061098c91906111dd565b9050919050565b600047905090565b60006001836040516109ad91906115de565b908152602001604051809103902060009054906101000a900473ffffffffffffffffffffffffffffffffffffffff1673ffffffffffffffffffffffffffffffffffffffff166370a08231836040518263ffffffff1660e01b8152600401610a1491906115f5565b60206040518083038186803b158015610a2c57600080fd5b505afa158015610a40573d6000803e3d6000fd5b505050506040513d601f19601f82011682018060405250810190610a64919061136e565b905092915050565b6001818051602081018201805184825260208301602085012081835280955050505050506000915054906101000a900473ffffffffffffffffffffffffffffffffffffffff1681565b600183604051610ac591906115de565b908152602001604051809103902060009054906101000a900473ffffffffffffffffffffffffffffffffffffffff1673ffffffffffffffffffffffffffffffffffffffff166323b872dd3330846040518463ffffffff1660e01b8152600401610b3093929190611610565b602060405180830381600087803b158015610b4a57600080fd5b505af1158015610b5e573d6000803e3d6000fd5b505050506040513d601f19601f82011682018060405250810190610b829190611173565b610b8b57600080fd5b600182604051610b9b91906115de565b908152602001604051809103902060009054906101000a900473ffffffffffffffffffffffffffffffffffffffff1673ffffffffffffffffffffffffffffffffffffffff1663a9059cbb33836040518363ffffffff1660e01b8152600401610c04929190611647565b602060405180830381600087803b158015610c1e57600080fd5b505af1158015610c32573d6000803e3d6000fd5b505050506040513d601f19601f82011682018060405250810190610c569190611173565b610c5f57600080fd5b610c6b83838384610e92565b505050565b6000600182604051610c8291906115de565b908152602001604051809103902060009054906101000a900473ffffffffffffffffffffffffffffffffffffffff169050919050565b6000806402540be40083610ccc9190611832565b9050600060025482610cde9190611863565b905080471015610d23576040517f08c379a0000000000000000000000000000000000000000000000000000000008152600401610d1a906116cf565b60405180910390fd5b3373ffffffffffffffffffffffffffffffffffffffff166108fc829081150290604051600060405180830381858888f19350505050158015610d69573d6000803e3d6000fd5b50600185604051610d7a91906115de565b908152602001604051809103902060009054906101000a900473ffffffffffffffffffffffffffffffffffffffff1673ffffffffffffffffffffffffffffffffffffffff166323b872dd3330876040518463ffffffff1660e01b8152600401610de593929190611610565b602060405180830381600087803b158015610dff57600080fd5b505af1158015610e13573d6000803e3d6000fd5b505050506040513d601f19601f82011682018060405250810190610e379190611173565b610e4057600080fd5b60006040518060400160405280600581526020017f45746865720000000000000000000000000000000000000000000000000000008152509050610e8686828585610e92565b81935050505092915050565b60036000815480929190610ea59061199d565b9190505550600060035490506000600460008381526020019081526020016000209050818160000181905550338160050160006101000a81548173ffffffffffffffffffffffffffffffffffffffff021916908373ffffffffffffffffffffffffffffffffffffffff16021790555085816001019080519060200190610f2c929190610fac565b5084816002019080519060200190610f45929190610fac565b50838160030181905550828160040181905550505050505050565b6040518060c001604052806000815260200160608152602001606081526020016000815260200160008152602001600073ffffffffffffffffffffffffffffffffffffffff1681525090565b828054610fb89061196b565b90600052602060002090601f016020900481019282610fda5760008555611021565b82601f10610ff357805160ff1916838001178555611021565b82800160010185558215611021579182015b82811115611020578251825591602001919060010190611005565b5b50905061102e9190611032565b5090565b5b8082111561104b576000816000905550600101611033565b5090565b600061106261105d8461173b565b61170a565b90508281526020810184848401111561107a57600080fd5b611085848285611929565b509392505050565b60006110a061109b8461173b565b61170a565b9050828152602081018484840111156110b857600080fd5b6110c3848285611938565b509392505050565b6000813590506110da81611ab3565b92915050565b6000815190506110ef81611aca565b92915050565b600082601f83011261110657600080fd5b813561111684826020860161104f565b91505092915050565b600082601f83011261113057600080fd5b815161114084826020860161108d565b91505092915050565b60008135905061115881611ae1565b92915050565b60008151905061116d81611ae1565b92915050565b60006020828403121561118557600080fd5b6000611193848285016110e0565b91505092915050565b6000602082840312156111ae57600080fd5b600082013567ffffffffffffffff8111156111c857600080fd5b6111d4848285016110f5565b91505092915050565b6000602082840312156111ef57600080fd5b600082015167ffffffffffffffff81111561120957600080fd5b6112158482850161111f565b91505092915050565b6000806040838503121561123157600080fd5b600083013567ffffffffffffffff81111561124b57600080fd5b611257858286016110f5565b9250506020611268858286016110cb565b9150509250929050565b60008060006060848603121561128757600080fd5b600084013567ffffffffffffffff8111156112a157600080fd5b6112ad868287016110f5565b935050602084013567ffffffffffffffff8111156112ca57600080fd5b6112d6868287016110f5565b92505060406112e786828701611149565b9150509250925092565b6000806040838503121561130457600080fd5b600083013567ffffffffffffffff81111561131e57600080fd5b61132a858286016110f5565b925050602061133b85828601611149565b9150509250929050565b60006020828403121561135757600080fd5b600061136584828501611149565b91505092915050565b60006020828403121561138057600080fd5b600061138e8482850161115e565b91505092915050565b60006113a38383611530565b905092915050565b6113b4816118bd565b82525050565b6113c3816118bd565b82525050565b60006113d48261177b565b6113de818561179e565b9350836020820285016113f08561176b565b8060005b8581101561142c578484038952815161140d8582611397565b945061141883611791565b925060208a019950506001810190506113f4565b50829750879550505050505092915050565b61144781611905565b82525050565b600061145882611786565b61146281856117af565b9350611472818560208601611938565b61147b81611aa2565b840191505092915050565b600061149182611786565b61149b81856117c0565b93506114ab818560208601611938565b6114b481611aa2565b840191505092915050565b60006114ca82611786565b6114d481856117d1565b93506114e4818560208601611938565b80840191505092915050565b60006114fd601e836117c0565b91507f4465782069732072756e6e696e67206c6f77206f6e2062616c616e63652e00006000830152602082019050919050565b600060c08301600083015161154860008601826115c0565b5060208301518482036020860152611560828261144d565b9150506040830151848203604086015261157a828261144d565b915050606083015161158f60608601826115c0565b5060808301516115a260808601826115c0565b5060a08301516115b560a08601826113ab565b508091505092915050565b6115c9816118fb565b82525050565b6115d8816118fb565b82525050565b60006115ea82846114bf565b915081905092915050565b600060208201905061160a60008301846113ba565b92915050565b600060608201905061162560008301866113ba565b61163260208301856113ba565b61163f60408301846115cf565b949350505050565b600060408201905061165c60008301856113ba565b61166960208301846115cf565b9392505050565b6000602082019050818103600083015261168a81846113c9565b905092915050565b60006020820190506116a7600083018461143e565b92915050565b600060208201905081810360008301526116c78184611486565b905092915050565b600060208201905081810360008301526116e8816114f0565b9050919050565b600060208201905061170460008301846115cf565b92915050565b6000604051905081810181811067ffffffffffffffff8211171561173157611730611a73565b5b8060405250919050565b600067ffffffffffffffff82111561175657611755611a73565b5b601f19601f8301169050602081019050919050565b6000819050602082019050919050565b600081519050919050565b600081519050919050565b6000602082019050919050565b600082825260208201905092915050565b600082825260208201905092915050565b600082825260208201905092915050565b600081905092915050565b60006117e7826118fb565b91506117f2836118fb565b9250827fffffffffffffffffffffffffffffffffffffffffffffffffffffffffffffffff03821115611827576118266119e6565b5b828201905092915050565b600061183d826118fb565b9150611848836118fb565b92508261185857611857611a15565b5b828204905092915050565b600061186e826118fb565b9150611879836118fb565b9250817fffffffffffffffffffffffffffffffffffffffffffffffffffffffffffffffff04831182151516156118b2576118b16119e6565b5b828202905092915050565b60006118c8826118db565b9050919050565b60008115159050919050565b600073ffffffffffffffffffffffffffffffffffffffff82169050919050565b6000819050919050565b600061191082611917565b9050919050565b6000611922826118db565b9050919050565b82818337600083830152505050565b60005b8381101561195657808201518184015260208101905061193b565b83811115611965576000848401525b50505050565b6000600282049050600182168061198357607f821691505b6020821081141561199757611996611a44565b5b50919050565b60006119a8826118fb565b91507fffffffffffffffffffffffffffffffffffffffffffffffffffffffffffffffff8214156119db576119da6119e6565b5b600182019050919050565b7f4e487b7100000000000000000000000000000000000000000000000000000000600052601160045260246000fd5b7f4e487b7100000000000000000000000000000000000000000000000000000000600052601260045260246000fd5b7f4e487b7100000000000000000000000000000000000000000000000000000000600052602260045260246000fd5b7f4e487b7100000000000000000000000000000000000000000000000000000000600052604160045260246000fd5b6000601f19601f8301169050919050565b611abc816118bd565b8114611ac757600080fd5b50565b611ad3816118cf565b8114611ade57600080fd5b50565b611aea816118fb565b8114611af557600080fd5b5056fea26469706673582212206d3e8d830302863eec0e48a4683f30b23c000ea42e3b4caf14f46fbb1533ae3464736f6c6343000800003360806040523480156200001157600080fd5b506040516200182338038062001823833981810160405281019062000037919062000337565b818181600390805190602001906200005192919062000215565b5080600490805190602001906200006a92919062000215565b5050506200008a336a084595161401484a0000006200009260201b60201c565b505062000614565b600073ffffffffffffffffffffffffffffffffffffffff168273ffffffffffffffffffffffffffffffffffffffff16141562000105576040517f08c379a0000000000000000000000000000000000000000000000000000000008152600401620000fc90620003fd565b60405180910390fd5b62000119600083836200020b60201b60201c565b80600260008282546200012d9190620004b4565b92505081905550806000808473ffffffffffffffffffffffffffffffffffffffff1673ffffffffffffffffffffffffffffffffffffffff1681526020019081526020016000206000828254620001849190620004b4565b925050819055508173ffffffffffffffffffffffffffffffffffffffff16600073ffffffffffffffffffffffffffffffffffffffff167fddf252ad1be2c89b69c2b068fc378daa952ba7f163c4a11628f55a4df523b3ef83604051620001eb91906200041f565b60405180910390a362000207600083836200021060201b60201c565b5050565b505050565b505050565b828054620002239062000551565b90600052602060002090601f01602090048101928262000247576000855562000293565b82601f106200026257805160ff191683800117855562000293565b8280016001018555821562000293579182015b828111156200029257825182559160200191906001019062000275565b5b509050620002a29190620002a6565b5090565b5b80821115620002c1576000816000905550600101620002a7565b5090565b6000620002dc620002d68462000470565b6200043c565b905082815260208101848484011115620002f557600080fd5b620003028482856200051b565b509392505050565b600082601f8301126200031c57600080fd5b81516200032e848260208601620002c5565b91505092915050565b600080604083850312156200034b57600080fd5b600083015167ffffffffffffffff8111156200036657600080fd5b62000374858286016200030a565b925050602083015167ffffffffffffffff8111156200039257600080fd5b620003a0858286016200030a565b9150509250929050565b6000620003b9601f83620004a3565b91507f45524332303a206d696e7420746f20746865207a65726f2061646472657373006000830152602082019050919050565b620003f78162000511565b82525050565b600060208201905081810360008301526200041881620003aa565b9050919050565b6000602082019050620004366000830184620003ec565b92915050565b6000604051905081810181811067ffffffffffffffff82111715620004665762000465620005e5565b5b8060405250919050565b600067ffffffffffffffff8211156200048e576200048d620005e5565b5b601f19601f8301169050602081019050919050565b600082825260208201905092915050565b6000620004c18262000511565b9150620004ce8362000511565b9250827fffffffffffffffffffffffffffffffffffffffffffffffffffffffffffffffff0382111562000506576200050562000587565b5b828201905092915050565b6000819050919050565b60005b838110156200053b5780820151818401526020810190506200051e565b838111156200054b576000848401525b50505050565b600060028204905060018216806200056a57607f821691505b60208210811415620005815762000580620005b6565b5b50919050565b7f4e487b7100000000000000000000000000000000000000000000000000000000600052601160045260246000fd5b7f4e487b7100000000000000000000000000000000000000000000000000000000600052602260045260246000fd5b7f4e487b7100000000000000000000000000000000000000000000000000000000600052604160045260246000fd5b6111ff80620006246000396000f3fe608060405234801561001057600080fd5b50600436106100a95760003560e01c80633950935111610071578063395093511461016857806370a082311461019857806395d89b41146101c8578063a457c2d7146101e6578063a9059cbb14610216578063dd62ed3e14610246576100a9565b806306fdde03146100ae578063095ea7b3146100cc57806318160ddd146100fc57806323b872dd1461011a578063313ce5671461014a575b600080fd5b6100b6610276565b6040516100c39190610ec8565b60405180910390f35b6100e660048036038101906100e19190610b67565b610308565b6040516100f39190610ead565b60405180910390f35b61010461032b565b6040516101119190610fca565b60405180910390f35b610134600480360381019061012f9190610b18565b610335565b6040516101419190610ead565b60405180910390f35b610152610364565b60405161015f9190610fe5565b60405180910390f35b610182600480360381019061017d9190610b67565b61036d565b60405161018f9190610ead565b60405180910390f35b6101b260048036038101906101ad9190610ab3565b6103a4565b6040516101bf9190610fca565b60405180910390f35b6101d06103ec565b6040516101dd9190610ec8565b60405180910390f35b61020060048036038101906101fb9190610b67565b61047e565b60405161020d9190610ead565b60405180910390f35b610230600480360381019061022b9190610b67565b6104f5565b60405161023d9190610ead565b60405180910390f35b610260600480360381019061025b9190610adc565b610518565b60405161026d9190610fca565b60405180910390f35b606060038054610285906110fa565b80601f01602080910402602001604051908101604052809291908181526020018280546102b1906110fa565b80156102fe5780601f106102d3576101008083540402835291602001916102fe565b820191906000526020600020905b8154815290600101906020018083116102e157829003601f168201915b5050505050905090565b60008061031361059f565b90506103208185856105a7565b600191505092915050565b6000600254905090565b60008061034061059f565b905061034d858285610772565b6103588585856107fe565b60019150509392505050565b60006012905090565b60008061037861059f565b905061039981858561038a8589610518565b610394919061101c565b6105a7565b600191505092915050565b60008060008373ffffffffffffffffffffffffffffffffffffffff1673ffffffffffffffffffffffffffffffffffffffff168152602001908152602001600020549050919050565b6060600480546103fb906110fa565b80601f0160208091040260200160405190810160405280929190818152602001828054610427906110fa565b80156104745780601f1061044957610100808354040283529160200191610474565b820191906000526020600020905b81548152906001019060200180831161045757829003601f168201915b5050505050905090565b60008061048961059f565b905060006104978286610518565b9050838110156104dc576040517f08c379a00000000000000000000000000000000000000000000000000000000081526004016104d390610faa565b60405180910390fd5b6104e982868684036105a7565b60019250505092915050565b60008061050061059f565b905061050d8185856107fe565b600191505092915050565b6000600160008473ffffffffffffffffffffffffffffffffffffffff1673ffffffffffffffffffffffffffffffffffffffff16815260200190815260200160002060008373ffffffffffffffffffffffffffffffffffffffff1673ffffffffffffffffffffffffffffffffffffffff16815260200190815260200160002054905092915050565b600033905090565b600073ffffffffffffffffffffffffffffffffffffffff168373ffffffffffffffffffffffffffffffffffffffff161415610617576040517f08c379a000000000000000000000000000000000000000000000000000000000815260040161060e90610f8a565b60405180910390fd5b600073ffffffffffffffffffffffffffffffffffffffff168273ffffffffffffffffffffffffffffffffffffffff161415610687576040517f08c379a000000000000000000000000000000000000000000000000000000000815260040161067e90610f0a565b60405180910390fd5b80600160008573ffffffffffffffffffffffffffffffffffffffff1673ffffffffffffffffffffffffffffffffffffffff16815260200190815260200160002060008473ffffffffffffffffffffffffffffffffffffffff1673ffffffffffffffffffffffffffffffffffffffff168152602001908152602001600020819055508173ffffffffffffffffffffffffffffffffffffffff168373ffffffffffffffffffffffffffffffffffffffff167f8c5be1e5ebec7d5bd14f71427d1e84f3dd0314c0f7b2291e5b200ac8c7c3b925836040516107659190610fca565b60405180910390a3505050565b600061077e8484610518565b90507fffffffffffffffffffffffffffffffffffffffffffffffffffffffffffffffff81146107f857818110156107ea576040517f08c379a00000000000000000000000000000000000000000000000000000000081526004016107e190610f2a565b60405180910390fd5b6107f784848484036105a7565b5b50505050565b600073ffffffffffffffffffffffffffffffffffffffff168373ffffffffffffffffffffffffffffffffffffffff16141561086e576040517f08c379a000000000000000000000000000000000000000000000000000000000815260040161086590610f6a565b60405180910390fd5b600073ffffffffffffffffffffffffffffffffffffffff168273ffffffffffffffffffffffffffffffffffffffff1614156108de576040517f08c379a00000000000000000000000000000000000000000000000000000000081526004016108d590610eea565b60405180910390fd5b6108e9838383610a7f565b60008060008573ffffffffffffffffffffffffffffffffffffffff1673ffffffffffffffffffffffffffffffffffffffff1681526020019081526020016000205490508181101561096f576040517f08c379a000000000000000000000000000000000000000000000000000000000815260040161096690610f4a565b60405180910390fd5b8181036000808673ffffffffffffffffffffffffffffffffffffffff1673ffffffffffffffffffffffffffffffffffffffff16815260200190815260200160002081905550816000808573ffffffffffffffffffffffffffffffffffffffff1673ffffffffffffffffffffffffffffffffffffffff1681526020019081526020016000206000828254610a02919061101c565b925050819055508273ffffffffffffffffffffffffffffffffffffffff168473ffffffffffffffffffffffffffffffffffffffff167fddf252ad1be2c89b69c2b068fc378daa952ba7f163c4a11628f55a4df523b3ef84604051610a669190610fca565b60405180910390a3610a79848484610a84565b50505050565b505050565b505050565b600081359050610a988161119b565b92915050565b600081359050610aad816111b2565b92915050565b600060208284031215610ac557600080fd5b6000610ad384828501610a89565b91505092915050565b60008060408385031215610aef57600080fd5b6000610afd85828601610a89565b9250506020610b0e85828601610a89565b9150509250929050565b600080600060608486031215610b2d57600080fd5b6000610b3b86828701610a89565b9350506020610b4c86828701610a89565b9250506040610b5d86828701610a9e565b9150509250925092565b60008060408385031215610b7a57600080fd5b6000610b8885828601610a89565b9250506020610b9985828601610a9e565b9150509250929050565b610bac81611084565b82525050565b6000610bbd82611000565b610bc7818561100b565b9350610bd78185602086016110c7565b610be08161118a565b840191505092915050565b6000610bf860238361100b565b91507f45524332303a207472616e7366657220746f20746865207a65726f206164647260008301527f65737300000000000000000000000000000000000000000000000000000000006020830152604082019050919050565b6000610c5e60228361100b565b91507f45524332303a20617070726f766520746f20746865207a65726f20616464726560008301527f73730000000000000000000000000000000000000000000000000000000000006020830152604082019050919050565b6000610cc4601d8361100b565b91507f45524332303a20696e73756666696369656e7420616c6c6f77616e63650000006000830152602082019050919050565b6000610d0460268361100b565b91507f45524332303a207472616e7366657220616d6f756e742065786365656473206260008301527f616c616e636500000000000000000000000000000000000000000000000000006020830152604082019050919050565b6000610d6a60258361100b565b91507f45524332303a207472616e736665722066726f6d20746865207a65726f20616460008301527f64726573730000000000000000000000000000000000000000000000000000006020830152604082019050919050565b6000610dd060248361100b565b91507f45524332303a20617070726f76652066726f6d20746865207a65726f2061646460008301527f72657373000000000000000000000000000000000000000000000000000000006020830152604082019050919050565b6000610e3660258361100b565b91507f45524332303a2064656372656173656420616c6c6f77616e63652062656c6f7760008301527f207a65726f0000000000000000000000000000000000000000000000000000006020830152604082019050919050565b610e98816110b0565b82525050565b610ea7816110ba565b82525050565b6000602082019050610ec26000830184610ba3565b92915050565b60006020820190508181036000830152610ee28184610bb2565b905092915050565b60006020820190508181036000830152610f0381610beb565b9050919050565b60006020820190508181036000830152610f2381610c51565b9050919050565b60006020820190508181036000830152610f4381610cb7565b9050919050565b60006020820190508181036000830152610f6381610cf7565b9050919050565b60006020820190508181036000830152610f8381610d5d565b9050919050565b60006020820190508181036000830152610fa381610dc3565b9050919050565b60006020820190508181036000830152610fc381610e29565b9050919050565b6000602082019050610fdf6000830184610e8f565b92915050565b6000602082019050610ffa6000830184610e9e565b92915050565b600081519050919050565b600082825260208201905092915050565b6000611027826110b0565b9150611032836110b0565b9250827fffffffffffffffffffffffffffffffffffffffffffffffffffffffffffffffff038211156110675761106661112c565b5b828201905092915050565b600061107d82611090565b9050919050565b60008115159050919050565b600073ffffffffffffffffffffffffffffffffffffffff82169050919050565b6000819050919050565b600060ff82169050919050565b60005b838110156110e55780820151818401526020810190506110ca565b838111156110f4576000848401525b50505050565b6000600282049050600182168061111257607f821691505b602082108114156111265761112561115b565b5b50919050565b7f4e487b7100000000000000000000000000000000000000000000000000000000600052601160045260246000fd5b7f4e487b7100000000000000000000000000000000000000000000000000000000600052602260045260246000fd5b6000601f19601f8301169050919050565b6111a481611072565b81146111af57600080fd5b50565b6111bb816110b0565b81146111c657600080fd5b5056fea2646970667358221220c73dfd4faadc4e176c1fd824d03ee95651a70d002c1a708519e5799b5c46277264736f6c63430008000033",
  "linkReferences": {},
  "deployedLinkReferences": {}
}